:1000000080110020AD14000091490000811400000F
:100010008114000081140000811400000000000021
:100020000000000000000000000000009911000026
:100030008114000000000000451100008114000040
:100040004912000049120000491200004912000044
:100050004912000049120000491200004912000034
:100060004912000049120000491200004912000024
:100070004912000049120000491200004912000014
:100080004912000049120000491200004912000004
:1000900049120000491200004912000049120000F4
:1000A00049120000491200004912000049120000E4
:0800B000491200004912000092
:1000B80053B94AB9002908BF00281CBF4FF0FF31C7
:1000C8004FF0FF3000F00CB8ADF1080C6DE904CE2C
:1000D80000F008F8DDF804E0DDE9022304B0704719
:1000E800704700BF2DE9F04786468C460846089EB3
:1000F800154674461946002B40F0C2808542B2FA74
:1001080082F245D94AB1C2F1200300FA02FC2EFA64
:1001180003F3954043EA0C0C94404FEA154EA8B2FD
:10012800BCFBFEF8230C0EFB18CC08FB00F943EAD5
:100138000C43994528D9EB1808F1FF3704D29945A3
:1001480002D9A8F102072B44A3EB0903A4B2B3FB1D
:10015800FEFC0EFB1C330CFB00F044EA0344A042F7
:1001680014D92C190CF1FF3304D2A04202D9ACF1F6
:1001780002032C44241A43EA07401EB1D44000234A
:1001880034607360BDE8F0874746DDE76346F1E712
:1001980092BB431B01214FEA154EAFB2B3FBFEFCE5
:1001A800200C0EFB1C330CFB07F840EA0343984570
:1001B80062D9EB180CF1FF3004D2984502D9ACF1A2
:1001C80002002B44A3EB0803A4B2B3FBFEFC0EFB16
:1001D8001C330CFB07F744EA0344A7424ED92C19F9
:1001E8000CF1FF3304D2A74202D9ACF102032C442C
:1001F800E41B43EA0040C0E7C2F1200320FA03F100
:10020800954090402EFA03F303434FEA154EAFB2E0
:10021800B1FBFEFC0EFB1C10190C0CFB07F841EAA5
:100228000041884504FA02F422D969180CF1FF301C
:1002380004D2884502D9ACF102002944A1EB080197
:100248009BB2B1FBFEFC0EFB1C110CFB07F743EA4B
:1002580001439F420ED9EB180CF1FF3104D29F42A3
:1002680002D9ACF102012B44DB1B41EA004192E7C1
:100278006046E3E76146F7E76046A3E76346B7E70A
:10028800834206D916B9002108467BE7C6E900E093
:10029800F9E7B3FA83F78FB9834201D3724508D8D7
:1002A800BEEB020460EB030301209C461EB900214B
:1002B80068E73846FAE7C6E9004CF8E7C7F1200CCA
:1002C800BB4022FA0CF41C432EFA0CF120FA0CF372
:1002D800B84001434FEA14490EFA07F5B3FBF9F8A1
:1002E8001FFA84FE09FB18300B0C08FB0EFA43EAD0
:1002F80000439A4502FA07F240D9E31808F1FF30A3
:1003080004D29A4502D9A8F102002344A3EB0A03B8
:1003180089B2B3FBF9F809FB183308FB0EFE41EA72
:1003280003418E452CD9611808F1FF3304D28E455C
:1003380002D9A8F10203214443EA0040A0FB029835
:10034800A1EB0E014145CE46434602D306D14D45A9
:1003580004D2B9EB020E68EB04030138002EA6D0D4
:10036800B5EB0E0261EB030101FA0CFC22FA07F36C
:100378004CEA0303F940C6E9003198E74046C5E76F
:100388004346D9E7084B1A691268920348BF80F0C0
:10039800010028B19B68DB6803484FF40031184717
:1003A8009B681B69F8E700BFF452000010B5144CB5
:1003B800204604F08AFD08B32269A168136843F453
:1003C800003313600B680F4A112120469847002814
:1003D80014DB0120FFF7D6FF04F052F904F050F9BE
:1003E80004F04EF90020FFF7CDFF4FF0FF304FF03B
:1003F800FF3103F083FE04F043F9FCE710BD00BFB2
:10040800F452000017000200014B1B68184700BF98
:1004180000000020014B1860704700BF000000205A
:1004280007B50B46002102460091034800F014F975
:1004380003B05DF804FB00BF110400002DE9F0478C
:10044800058B04462807904611D4022905F00705B4
:1004580040F0CD80204604F031F978B10138218B85
:10046800042811D8DFE800F0C3106D859500012934
:100478000CBF45F0100545F02005258388F3118849
:10048800BFF36F8FBDE8F08701F0070AAA4500F0B7
:10049800A6800027B9463E46A368002B00F0BD8021
:1004A80041F00801218388F31188BFF36F8FA16899
:1004B800002900F0BB800D68002900F0B780D1F852
:1004C8000480334652462046C047002D76D02B681C
:1004D80029461D46F0E701F007035A1F012A1BD8D9
:1004E800002221F00701062B276889B2C4E90022FF
:1004F80009D13B4603E0628B013262831B68002B03
:10050800F9D141F002012183204604F0D7F80028F0
:100518007BD041F0200177E0042B0AD121F00701BC
:1005280089B22183204604F0C9F810B141F02001B6
:100538002183218B01F0070AAA4550D00027B9462C
:10054800AAE7236921F0070141F00601062DD3F837
:10055800009021832DD1B9F1000F40D041F008015E
:10056800218388F31188BFF36F8F3A492046C84723
:1005780029E021F00701236941F0040189B2042D23
:10058800D3F804902183E6D000273E464FF0040AB2
:1005980082E721F00701236941F0050189B2052DA1
:1005A800D3F808902183D6D000273E464FF0050A9D
:1005B80072E700273E464FF0060A6DE72B4687E7AD
:1005C800B9F1000FD1D14FF02003EFF3118883F375
:1005D8001288BFF36F8F238B23F008032383258BA7
:1005E800EA062ED525F01003238305F00705666972
:1005F800218B002EBFF66FAF00232768C4E90033B4
:1006080021F0070141F001012183218B01F0070A44
:10061800AA454FF000097FF43FAF002F9BD041F06F
:100628000801218388F31188BFF36F8F002FC7D08B
:100638003D68394633465246204604F06BF82F464B
:10064800F4E7AB067FF51AAF25F02003238305F006
:100658000705FFE6494700002DE9F04F814695B0B0
:100668008B4617461C460025387808B9284658E3B3
:100678007B1C2528039306D05946C8470028C0F29A
:1006880050830135FBE1182200210EA804F09EF9E1
:100698007B78252B7DD00023781C98469E469C4667
:1006A8001E46014610F8012B2B2A00F0A18000F20B
:1006B8009880202A00F09F80232A00F09F802BB189
:1006C8009DF8403043F040038DF84030B8F1000FFA
:1006D80005D09DF8403043F020038DF84030BEF13E
:1006E800000F05D09DF8403043F010038DF84030DE
:1006F800BCF1000F05D09DF8403043F008038DF899
:1007080040302EB19DF8403043F004038DF840305E
:100718009DF8403003F04400442803D16FF386135A
:100728008DF840309DF840302A2A43F080038DF838
:1007380040307FD19DF8412042F001024B1C8DF8DA
:1007480041201A782E2A9DF841200CBF0121002152
:1007580061F341028DF8412078D15A782A2A6ED067
:10076800013300224FF00A0C194611F8010BA0F1D1
:100778003006092E40F295809DF840101292C1F380
:10078800400040EAD2700A4660F341028DF84020EA
:100798005CE0BA1C03928DF843309DF84130DA07CB
:1007A80040F12E8154F8048BB8F1000F07DA9DF858
:1007B800402042F004028DF84020C8F100085E078E
:1007C80040F1278154F804ABBAF1000F80F226817A
:1007D8009DF841306FF341038DF841304FF0FF3AF7
:1007E8001CE12D2A0DD0302A7FF469AF012358E788
:1007F8004FF0010C55E74FF0010E52E74FF001089A
:100808004FE701264DE70EFB0262303A03461846D1
:1008180010F8016BA6F1300CBCF1090FF3D999421D
:100828008FD09DF840101192D20F62F341018DF8DC
:10083800401086E70B4600224FF00A0EE7E79DF8C6
:10084800412042F004028DF8412002331A786C2AC4
:1008580047D02BD8682A31D06A2A4BD04C2A51D09D
:100868001A4612F8013B0392782B9DF841208DF827
:10087800433000F2BE806D2B51D8692B00F2B9804D
:10088800572B67D8412B03D0453B022B00F2B18090
:100898009DF84230042262F302038DF842300123AE
:1008A80073E00CFB0202303A0B465DE7742A25D050
:1008B8007A2AD5D19DF8412006210CE05A78682A79
:1008C8009DF8412006D1012161F3C6028DF841202F
:1008D8000233C5E7022161F3C6028DF841200133D6
:1008E800BEE75A786C2A9DF8412001D10421EBE734
:1008F8000321F0E79DF841200521ECE79DF8412010
:100908000721E8E7BDF8402022F4F04222F0020275
:1009180042F4804242F00202ADF84020DFE76E3B2D
:10092800D9B201238B4040F282410B4237D113F0F8
:10093800240F51D1D8075CD59DF84230032161F3CB
:1009480002038DF8423002F07803A3F140014B42D4
:100958004B411AE0A3F15801C9B2012000FA01F194
:1009680011F4624F94D140F6010631421DD111F4C1
:10097800043F3ED09DF8423060F3020302F0780253
:10098800402A8DF8423034D000239DF84020C2F32D
:1009980040010B4363F341028DF84020FDE69DF8CA
:1009A8004230022161F30203E8E79DF84210022079
:1009B80002F0780260F30201402A8DF8421002BF6B
:1009C8009DF8401041F001018DF84010632BDBD1F8
:1009D800131E18BF0123D8E79DF84230032161F3A5
:1009E800020312F0780F8DF8423014BF0123002360
:1009F800CBE79DF8403043F001038DF84030C3E762
:100A08009DF94020002AB4BFDDF844804FF0FF383C
:100A1800D5E698077FF5E2AEDDF848A09DF84110CD
:100A28000023CDE911339DF8423003F00703012B71
:100A3800C1F3C30133D1CB1E042B04D8DFE803F084
:100A4800214646212100236801294FEAE372CDE9B6
:100A58000E321CD19DF93830DA17CDE90E32043444
:100A68009DF8403013F0030650D0039B3A46594690
:100A7800484603F067FF0028C0F253810544039FEE
:100A8800F2E554F8043BDA17CDE90E32E8E702291B
:100A9800E5D11AB243F3C033CDE90E23DFE7022BC9
:100AA80024D1CB1E042B04D8DFE803F0181010184B
:100AB8001800012954F8043B4FF0000214D0022911
:100AC800CDE90E32CCD19BB20E93C9E7073424F09E
:100AD8000704F4E80223CDE90E23C1E754F8043BE8
:100AE8000E9300230F93BBE7DBB2CDE7042B08D1AD
:100AF800073424F00704D4E900230834CDE90E2391
:100B0800AEE7032BACD154F8043BDDE79DF8430076
:100B18007828B4D862281CD825283FF4ADAD5828C9
:100B2800ADD10DF136030093DDE90E0108AB10AA33
:100B380003F0C2FEBAF1000F074680F29A80002F38
:100B48009DD00DF13603D81B002E00F0C180013076
:100B5800BEE06338152892D801A252F820F000BFF1
:100B68003D0C00004F0C0000870A0000870A0000B7
:100B7800870A0000870A00004F0C0000870A00005F
:100B8800870A0000870A0000870A0000DD0C0000C1
:100B9800750C00009B0C0000870A0000870A000003
:100BA800C10B0000870A0000750C0000870A0000CE
:100BB800870A0000750C0000BAF1000F0E9F35DBA4
:100BC8005146384603F0EEFE07EB000A002F3FF4CB
:100BD80056AF00269DF8423013F01002059200F03F
:100BE800938002305B06119A48BF129B049210440E
:100BF80048BFC018B8F1000F40F3A0809DF840200E
:100C0800A8EB0008C2F380035007069300F1968012
:100C1800510640F189803EB159463046C847002800
:100C28007FDB069B01351E4630227EE0384603F006
:100C3800B2FEC9E70E9B8DF82030002608AF0DF1F3
:100C4800210A0120C6E719075CBFC3F300135E0140
:100C5800DDE90E2348BF2B26002BBFF662AF5242B8
:100C680063EB4303CDE90E232D265AE7002658E708
:100C780000269DF840200DF13603DB1B6FF386122A
:100C88009A458DF840207FF65AAFAAEB03031193DB
:100C980055E70E9890B30DF13603009310AA08ABF0
:100CA800002103F009FEBDF8423003F0EF0343F4DE
:100CB800F04343F01003BAF1000F0746ADF8423095
:100CC800D6DA00283FF4DBAE0DF13603181A0026F9
:100CD8009A467FE70E9B07293FF6D1AEDFE801F081
:100CE8000C04060C08080C0C1D70C8E61D80C6E62E
:100CF800EA17C3E90052C2E61D60C0E62E4F064659
:100D080007F1050A052065E71A0748BF013069E7BA
:100D18000793104606925946C8470028DDE906237E
:100D280004DA15B0BDE8F08F2022434619460029A1
:100D380003F1FF33ECDC45446D1A98462EB1594651
:100D48003046C8470028ECDB01359DF84230DA060A
:100D580001D41B0705D559463020C8470028E0DBD9
:100D68000135059B33B19DF843005946C847002813
:100D7800D7DB0135049E2E4405E059463020C8478C
:100D88000028CEDB0135731B002BF6DC53463A46B0
:100D98005946484603F0D6FD0028C2DB0544A8445E
:100DA800A8EB0503002B7FF76AAE59462020C847F9
:100DB8000028B6DB0135F3E76855000001F008BDEF
:100DC8002DE9F84305464FF02003EFF3118683F32E
:100DD8001288BFF36F8F0E4B0E4F1C68DFF83880F8
:100DE8004FF00C092CB986F31188BFF36F8FBDE85B
:100DF800F883D4E90123002D18BF13462BB198F8C6
:100E0800142009FB02F2B85C98472468EAE700BF9F
:100E1800C8020020BC020020B403002070B5194BA2
:100E28001C7DBFF35B8F04F01F0301229A40164B11
:100E3800610903EB8103D04353E8001F01EA000571
:100E480043E80056002EF7D1BFF35B8F0A4213D058
:100E58000E4B0F4D8BB10C236343EA18E85C5178B5
:100E680003F0DFFD0020FFF7ABFF0C235C432A19DA
:100E780000232B51C2E9013370BD83F31188BFF3FE
:100E88006F8FEFE7B4030020D00200202B4A000048
:100E9800BC0200202DE9F041354B07461D7D4FF07F
:100EA8002003EFF3118883F31288BFF36F8F0C24AC
:100EB800304B314E6C431A19195D00294CD007CAC2
:100EC80006EB040C8CE8070000221A5588F31188F9
:100ED800BFF36F8F0C236B43F218F05C002839D0F6
:100EE8007B1C10D0D2F808C0244C254A4FF400408F
:100EF8000021ECFB004100232046FFF7D9F801212F
:100F0800381A04F07EF903F03BF80120FFF758FF88
:100F1800BFF35B8F1B4B6A0903EB820305F01F01CC
:100F280001228A4053E8000F104343E800010029DA
:100F3800F8D1BFF35B8F144B3BB10C2303FB05F0D7
:100F48003318305C597803F060FDFFF767FF03F052
:100F58002BF80120BDE8F0810146284600F016F87C
:100F68000028B3D007C8344484E80700AEE700BFC0
:100F7800B4030020B0020020BC0200203F420F0052
:100F880040420F00D0020020134A00002DE9F04F24
:100F980085B00E4603A900F043F81E4B039DD3F815
:100FA80000A0DFF87480431E1BB203EB4303044622
:100FB80005EB83054FF400474FF0000B24B9A14619
:100FC800484605B0BDE8F08F6868144AC4465946DB
:100FD800E0FB07C100236046FFF76AF80190A868A4
:100FE8000E4AC4465946E0FB07C100236046FFF796
:100FF8005FF8BAF1FF3FA94601D0824505D9731CB5
:10100800DED0019B1844B042DAD9013CA4B20C3DB1
:10101800D4E700BF040000203F420F0040420F0009
:1010280008B9024B0B600020704700BF58540000FD
:10103800014910220A60704710ED00E072B6404086
:1010480080F31188BFF36F8FBFF34F8F30BF62B645
:10105800BFF36F8F704700BF72B6494081F31188A4
:1010680020BF80F3118862B6704700BF40B20028E5
:1010780007DB044A4109012300F01F00834042F8BE
:101088002130704700E100E0054B420900F01F00E5
:1010980053F82220012303FA00F01040704700BFE4
:1010A80000E100E040B20028A8BF00F1604001F173
:1010B8000101B8BF064B4FEA4111ACBF00F56140D2
:1010C80000F00F00C9B2B4BF195480F8001370477C
:1010D80014ED00E030BFFFF7FDBF00BF08B5084BB7
:1010E800084A23F07F039360BFF34F8FBFF36F8FDE
:1010F80002F084F903F094F800F0C8F902F0C2F99C
:101108000000000000ED00E0094A0A4993680968F8
:101118009967094958674B6843F080534B6000232F
:1011280083F31188BFF36F8F9368986F704700BF80
:10113800B40300204C55000000ED00E012498A6815
:101148004FF030001044EFF3098C80E8F01F2020A6
:1011580080F31288BFF36F8F0C4F4FF00066CA6997
:101168008A603E60506F0023536780F3118804B58E
:10117800104600F027FABDE8044002F1300090E87C
:10118800F01F8CF309887047B403002004ED00E0D9
:101198001EF0040F0CBFEFF30880EFF3098081699C
:1011A80011F8021C0229FFD001B503F0E5FB01BDCF
:1011B80042F8203C009B42F81C3C0A49019B42F83B
:1011C800183C029B42F8143C21F001014FF0807357
:1011D80042F8043C42F8081C0023203A02654367A1
:1011E800704700BFB1460000094A0346906870B1D5
:1011F80013F1160F406E05D0A0F140029A4205D8AF
:10120800834203D2814228BF0020704700207047E4
:10121800B403002008B5094B98600D46144600F049
:10122800D1F9204685F30988002163B681F3118836
:10123800BFF36F8F0022002303F036FAB4030020B7
:1012480001B572B60B4A906900281EBF0021916152
:1012580003F070FE62B6EFF30580A0F110004FEACC
:10126800C0000549014409C99847BDE80140034940
:1012780008470000B40300203C5300008912000016
:10128800044B9968D869884203D003494FF08052CB
:101298000A607047B403002004ED00E070B5184BF5
:1012A80014469A6A9A6A9A6A9207064619D5586B3A
:1012B8009A6A150615D519B19A6A22F080029A62BF
:1012C8009A6A9A6A0E4D12F0100F0DD19B6A9A070E
:1012D8000AD40020AB6A43F0FF03AB6200232370FB
:1012E80070BD6FF01500EBE76B681B05F1D5314653
:1012F800FFF77AFF0028ECD080F309880220E9E79D
:1013080000ED00E00B4B9A6A9A6A9A6A920508D532
:101318009A6B9A6A120404D518B19A6A22F40042A8
:101328009A629A6A9A6A9A6A002042F47F429A629A
:101338000870704700ED00E070B54A4B5B688AB0F2
:101348000546C3F30803002686F31188BFF36F8FA1
:1013580002F07F40B0F17F4F11D102F00C00082855
:101368000DD010074CBF0D4601260022033B8DF817
:101378000720032B4DD8DFE803F00465696D354677
:10138800F3E7384BDA6A910743D4DA6A002A40DB7C
:10139800DA6A52003DD55A69A96942F480725A61E5
:1013A800BFF34F8FBFF36F8F5A6931F8021C22F4D5
:1013B80080725A61BFF34F8FBFF36F8F4DF6027281
:1013C800914209D09A6AD2B242B10DF107020121C5
:1013D8002846FFF763FF0AE02C681BE09A6A12F4BC
:1013E8007F4F06D00DF107010120FFF78BFF044660
:1013F80010E09A6AB2F5803F0BD39A6A9A6A9A6AA1
:101408009A6A9A6A9A6A9A6A6FEA02426FEA12427A
:101418009A6200249DF8073093B92022294602A831
:1014280003F0C9FA099BBEB1C3F3080222B96FEAF7
:1014380053236FEA4323099302A9204603F09AFA3B
:101448000AB070BD0DF107020021C1E70DF10701D7
:101458000020CAE7034BD0E723F4FF7323F001030E
:10146800E9E700BF00ED00E0024A536943F01003CA
:101478005361704700ED00E0EFF30880EFF3098156
:1014880001B57246FFF758FF01BD00BF04480023AD
:101498002021C21801331E2B82F80013F9D170479E
:1014A80000E100E0002080F31488BFF36F8FFFF79E
:1014B80085FC00200D490860BFF34F8F0C4880F36E
:1014C800088800F02BF8202080F3118809484FF491
:1014D8000461401880F30988EFF31480022108435F
:1014E80080F31488BFF36F8FFFF7F8FD94ED00E0E9
:1014F80080110020000400200749D1F89020002323
:10150800C2F307221846934200DB7047C1F89830AF
:10151800C1F8A0000133F6E700ED00E008B572B6A7
:10152800002383F31388FFF7E7FF144B4FF0FF32D4
:10153800C3F88020C3F88420C3F88820C3F88C201F
:10154800C3F89020C3F89420C3F89820C3F89C20CF
:10155800C3F88021C3F88421C3F88821C3F88C21FB
:10156800C3F89021C3F89421C3F89821C3F89C21AB
:1015780062B6BFF34F8FBFF36F8F08BD00E100E085
:10158800084B9B6883420BD1EFF3058343B1064BAD
:101598005A6842F080525A605A6A22F400425A62EB
:1015A80002F0CCBDB403002000ED00E0024B034A7A
:1015B8000348012100F070B80060002000000020FE
:1015C80058540000426E054B403A1A60044A4021C4
:1015D800C3E901121846012100F068B8D4020020BE
:1015E80000000B15F0B5204E00258D4239DA44680D
:1015F80074B353B104F1FF3C14EA0C0F2FD11F2C24
:101608002DD907681CEA070F29D1202C0768D0F8C4
:1016180008C05FFA82FE1ED9B4F1004F1DD8013C04
:10162800B4FA84F4C4F11F046400BEF1070F4CEA55
:10163800040C14D827F01F04144344F01004C6F80F
:101648009820C6F89C404CF00104C6F8A04001322E
:1016580001350C30C9E70824E7E73E24E5E76FF0D9
:1016680015021046F0BD00BF00ED00E0044B052256
:10167800C3F89420BFF34F8FBFF36F8F704700BF3D
:1016880000ED00E0BFF35F8F024B0022C3F8942007
:10169800704700BF00ED00E010B5034C012322782D
:1016A800FFF7A0FF207010BDF603002008B5094A17
:1016B80000231278FFF796FF10F1160F02D0064AA2
:1016C800072800DD08BDC2F89800C2F8A030013034
:1016D800F6E700BFF603002000ED00E014490868B3
:1016E800082810B521D8FFF7CDFF124C4968002211
:1016F800904201F10C0105D10F4B1870FFF7B6FFAE
:10170800002010BDC4F8982051F80C3C23F01F03AA
:10171800134343F01003C4F89C3051F8043C43F0E1
:101728000103C4F8A0300132E2E74FF0FF30E8E7E8
:101738006454000000ED00E0F6030020014B18603F
:10174800704700BF080000204FF08043C0B2C3F8C4
:101758001C05BFF34F8F0549054BCA6802F4E062C8
:101768001343CB60BFF34F8F00BFFDE700ED00E0F0
:101778000400FA0520B1034B800143F00103184728
:10178800704700BF50540000084B70B5C31A0D468F
:1017980007499B10044659430648402203F063F961
:1017A8002B4601462046BDE870401847F402002049
:1017B800B76DDBB6DC52000073B50C4C0C4A402305
:1017C800041B00930D460B460A49A41061430646C4
:1017D800094803F075F9011E05DA30462B4602B0B8
:1017E800BDE87040184702B070BD00BFF402002089
:1017F800354B0000B76DDBB6DC520000002270B537
:10180800012104461046FFF74DFC114801F006FA85
:10181800104B984218D1206900F0B2F903F0FFFA92
:1018280026690D49304602F099FF00280BDB012597
:1018380035642469084904F11C0002F08FFF002870
:1018480001DBE564002070BD6FF00400FBE700BF1A
:10185800991800000000AD0B8454000070B50146D3
:101868000C2309484B43C418D4E90E5600224033D0
:10187800A263184403F0E4F82DB132462B4603481E
:10188800BDE87040184770BDF4020020DC5200002B
:10189800012810B504460AD003280CD078B9084BA3
:1018A8001B6C5B070BD1BDE81040FFF7D7BF00F0FA
:1018B80075F92046F7E7BDE8104000F07DB910BD86
:1018C800F402002008B54FF02003EFF3118183F3F1
:1018D8001288BFF36F8F124A136843F0020010603A
:1018E800DA0708D481F31188BFF36F8F0120BDE8B0
:1018F800084003F0A1BA4FF08043D3F80C24D3F882
:101908000C34D307EED5074803F09AF881F3118811
:10191800BFF36F8F0020BDE80840FFF79FBF00BFEF
:1019280044030020340300201FB500220123CDE921
:101938000223094ACDF800D06B46CDF804D003F055
:10194800EEF8002805DB4FF480420023684601F0DA
:10195800B1FF05B05DF804FB4D4B0000094BBFF328
:101968005B8F53E8002F22F0020143E800100028A3
:10197800F7D1BFF35B8FD30702D4012003F094BAE9
:10198800704700BF44030020024AC3B21C2003FB77
:1019980000207047F4020020F8B52849BFF35B8F98
:1019A8000646012251E8003F41E800200028F9D10D
:1019B800BFF35B8F33B9224922484B60CB608A6002
:1019C80002F0DFFE731E012B1DD803F0A8FA0446AF
:1019D800D0B91D4B1B78BBB14FF080430222C3F82E
:1019E800082305464FF08047D7F81834D7F818244D
:1019F800D20313D59B0701D0012E0FD1C4B185F3B3
:101A08001188BFF36F8FF8BD4FF02003EFF31185F6
:101A180083F31288BFF36F8F0124E3E71CB12846D4
:101A2800FFF71AFBE0E70021212002F067FBDBE764
:101A38004FF080430222C3F80423E4E7F0020020B9
:101A4800E002002010030020FA0300200D4BBFF332
:101A58005B8F012253E8001F002903D143E80020CF
:101A68000028F7D1BFF35B8F0AD107490023CB6069
:101A7800064B4B6003238B60054B186802F081BE50
:101A8800704700BF640300204C0300205D1B00006A
:101A98004803002007B500220023CDE900230848A9
:101AA8004FF40032002302F07FFD064B186802F065
:101AB800C0FE054B00221A6003B05DF804FB00BFAE
:101AC800B00000204803002064030020F7B51C4E36
:101AD8001C4CB7681C4DFB6839213046984740B10B
:101AE800002323702B8001F0ABF80123237003B08F
:101AF800F0BD0C213B696A46304698470028EFD173
:101B0800124A019B93FBF2F3009A217803EB8203BC
:101B18001BB2B5F900200029E4D09A1A002AB8BFF0
:101B2800524212B2012ADDDC094A13680139013335
:101B38002170136003B0BDE8F040FFF7ABBF00BFF2
:101B480024530000F7030020F403002090D0030082
:101B58005C03002008B5074803F0B7F928B901F07D
:101B68006FF8054B01221A7008BDBDE8084003480C
:101B780001F0BEBF24530000F70300200C00002032
:101B8800034B044A186000231360034A136070472C
:101B980048030020600300205C030020024B002261
:101BA8001A70FFF753BF00BFF7030020014803F086
:101BB8004EBB00BFB0000020024A13680133136017
:101BC800FFF768BF6003002008B5074803F07DF9F8
:101BD80038B10648FFF7B2FD0448FEF71BFC0020A9
:101BE80008BD6FF01200FBE70C530000F91B000062
:101BF8000A2838B5074D044604D1AB680D215B6847
:101C080028469847AB6803485B68E1B29847204686
:101C180038BD00BF0C53000030B54068057B01F0AB
:101C28001F04B2F5001F85B044EA451405D12046CB
:101C380001F0AEFA002005B030BD0025B2F5800FE6
:101C4800CDE9025514D1B3F1007F0CBF042305235D
:101C58008DF808300023194602AA204601F0CEF874
:101C68001D4B984235D10121204601F04DFAE1E79C
:101C7800B3F1C06F22D0B3F1007F14BF0123022358
:101C88008DF808308368CB40D907E3D4B2F1A07F40
:101C9800E0D104F01F0303F5E0734FF0A04252F8BF
:101CA8002330DB07D6D40DF107052946204601F07D
:101CB800D7F90A4B984203D00395CBE70323DFE714
:101CC800284601F01BFA044B9842F5D06FF00B0040
:101CD800B1E76FF01500AEE70000AD0B0400AD0BE7
:101CE80010B501F0FBF9044668B901F0CFF9084BCB
:101CF80098420AD10748214601F0ACF9224605214D
:101D08000620FFF7CFF9002010BD6FF00400FBE7B5
:101D18000000AD0B211D0000430970B507D10B4B26
:101D2800596821B101250C68094E854001B970BD7B
:101D38008A682A4002D04B68304698471CB123680D
:101D480021461C46F2E72346FAE700BF6803002055
:101D5800F45200002DE9FF4147683B7B01F01F0565
:101D680045EA43150E4628460DF10301144601F0D5
:101D780077F914F4403F80460BD1284601F030FA39
:101D88003D4B984503D19DF8030001F0B1F90020BF
:101D98000CE00023194602AA2846CDE9023301F0D7
:101DA8002DF8354B984204D06FF0150004B0BDE80B
:101DB800F081804503D19DF8030001F099F9A30350
:101DC8004BD540F206332340B3F5837F19D00CD8A6
:101DD800062B17D004D8ABB1022BE5D1042311E0B0
:101DE800B3F5807FE0D101230CE040F20222934258
:101DF80027D0B3F5407F26D0B3F5007FD4D1022396
:101E080000E007238DF8043084F48033C3F30043E3
:101E1800E0068DF8053054BFC4F3401303232103B3
:101E28008DF8063011D57A680123B340C2F8083519
:101E3800002201A9284601F08FF80F4B9842A6D03E
:101E4800B2E70523DEE70323DCE7620341BF012392
:101E58007A68B340C2F80C35EAE7E3064FF00003AE
:101E680054BFC4F3401403241A4601A928468DF828
:101E7800044000F0C3FFE0E70000AD0B014B012276
:101E88001A60704700C000400C2903690BD15B6AD7
:101E9800064907484B4393FBF0F100FB11331160EF
:101EA8005360002070476FF08500704790D00300A2
:101EB80040420F00044B00690022C3F80021D3F808
:101EC800003101F0D7BC00BF00C000407FB50569F4
:101ED800AB6A63B3392901D00C292BD105F110065F
:101EE8004FF0FF324FF0FF33304601F00DFC134B3B
:101EF8000193A86A0323002469460394029302F01D
:101F080040FC4FF0FF324FF0FF33284601F0D2FC7F
:101F1800A86A02F08EFC0A4BD3F808256A620122EF
:101F28005A60304601F06AFC204604B070BD6FF07C
:101F38000A00FAE76FF08500F7E700BF851E00008A
:101F480000C0004010B504690020FFF71DFDA06225
:101F58004FF0FF320021204603F002F804F1100090
:101F680002F0F7FF002201210C20FFF79BF80C205C
:101F7800FFF77CF8024B0122C3F80423002010BDB0
:101F880000C00040F0B54B79012B26D0032B21D19E
:101F980010258B79032B1DD1CE790EB1012E19D1C5
:101FA8000A7912B1022A15D10E220B684468B3F5DA
:101FB800164F276867D02DD8B3F5165F66D016D8A8
:101FC800B3F5966F64D00AD8B3F5967F63D0B3F5AE
:101FD800167F63D06FF0850054E00025D9E7B3F58C
:101FE800166F5ED0B3F5965FF4D1384B3CE0B3F58D
:101FF800E14F59D007D8B3F5615F57D0B3F5964F85
:10200800E8D1334B30E047F61224A342E2D14FF433
:10201800000329E0B3F5613F4AD013D8B3F5963FE2
:1020280049D009D84DF6C024A34246D0B3F5614F34
:10203800D0D14FF46B0317E0B3F5E13FCAD14FF0AD
:10204800EB7311E0B3F5612F3AD008D8214CA342C5
:1020580039D0B3F5E12FBDD14FF0E86304E01E4C51
:10206800A342B7D14FF080530469C7F824354368B9
:1020780035431B682A43C3F86C2503C9231D83E82D
:1020880003000020F0BD4FF41D03EDE7134BEBE711
:102098004FF49E23E8E74FF4A033E5E74FF41C33F1
:1020A800E2E74FF41D23DFE70D4BDDE70D4BDBE7E0
:1020B8004FF06C73D8E70C4BD6E74FF46503D3E7C2
:1020C8004FF07063D0E74FF08063CDE700B01300A6
:1020D80000A04E0090D0030040420F00005027009F
:1020E80000C0750000F03A0000903A012DE9F7436E
:1020F8008046002201210220FEF7D4FF0220FEF7CD
:10210800B5FFD8F80470D8F810603C680021C4F80E
:102118000015C6F80080D7F80C9001AA484602F0CE
:10212800E0FD051E54DB019BD9F8002019791868D9
:1021380002F0EDFD051E4BDB311D4046FFF722FF87
:102148000546002844D17B6899071AD506F118007E
:1021580001F012F9224B98423ED1337EDB0003F1A5
:10216800804303F5F83304F10C0204F59071C3F8C9
:102178001015C3F81425327E01239340194AC2F87A
:1021880004350823C4F800353B7A53B9C4F8103134
:10219800D4F810317369C4F834350123C4F83835DC
:1021A80023607B689A075CBF4FF48073C4F80433DC
:1021B8007B68DB0644BF4FF48003C4F804333369FB
:1021C800C4F844350023C4F848350123A360E3600C
:1021D800284603B0BDE8F0836FF00405F8E700BFB8
:1021E8000000AD0B00F00140F8B5044607690D4644
:1021F80002F095FEB0B92E4B1B789BB1642660683F
:1022080002F025FD00BB012002F007FE013EF6D1D9
:102218000021212001F072FFF0E786F31188BFF357
:102228006F8FF5E74FF02003EFF3118683F31288E1
:10223800BFF36F8F6068314602F009FD90B986F3ED
:102248001188BFF36F8FEDE74FF02003EFF311868E
:1022580083F31288BFF36F8F6068314602F0F7FC92
:102268000028DAD03B691D70626838691368C3F8C2
:1022780044050120C3F848050020C3F82001D3F81D
:102288002051C3F858015268D3F85801D20608D52E
:10229800626812680820C2F800054FF48002C3F88B
:1022A800042301229A6081F31188BFF36F8FF8BD70
:1022B800FA03002070B5012383400E4ABFF35B8FF9
:1022C800DC4352E8001F01EA040542E80056002EEC
:1022D800F7D1BFF35B8F4FF4803282400648C0F8D5
:1022E8000823BFF35F8FBFF36F8F0B4214BF01202A
:1022F800002070BDA403002000100140F8B51B4960
:10230800044622F07F450868C1E90023A5F50013BB
:10231800101AB3F5400F0FD302F068F8A30003F1C9
:10232800804303F58833D3F8402595421DD14FF4F7
:102338000002C3F8402512E00D4B1B681A0A1B0661
:102348005E190C4B42F10007C3E9006702F04EF832
:10235800094A04F5A87352F823309D4205D1064A6C
:102368004FF48033A340C2F84433F8BDF80000208E
:10237800A8030020000100200010014011B3BFF3A2
:102388005B8F0123104A834052E800CF4CEA030CCC
:1023980042E800C10029F7D1BFF35B8F0B4A4FF425
:1023A80080338340C2F80433094BBFF35B8F1B684B
:1023B800BFF35B8FC340DB0742BF064B4FF40032CD
:1023C800C3F80021704700BFA4030020001001409B
:1023D800A003002000E100E00D4B1868010A000688
:1023E800BFF35F8F0B4BD3F80435181841F1000188
:1023F800B3F5801F0AD2084BD3E90023904271EB52
:10240800030303D210F1807041F10001704700BF4F
:10241800A803002000100140000100202DE9F74F1B
:1024280014461D460746FFF745FF0090FFF7D4FF07
:10243800A04271EB05037AD2464B201A65EB0101E5
:10244800984271F1000180F08180434B03EB071340
:10245800D3E902239D4208BF944253D04FEA870A2A
:102468000AF1804A07F150090AF5883A4FEA8909C2
:102478001FFA89F924F07F4809F180494FF4803325
:10248800DAF84005354A09F58839BB404646D2F89E
:1024980004B5A0EB0B0020F07F402BF07F41012812
:1024A800CAF8401505D10193132002F0CCFE2B4A3F
:1024B800019B0BF1020CA6EB0C0020F07F40B0F55D
:1024C800000F88BF66460020C9F80000D9F8000050
:1024D800C2F8443326F07F40CAF84005D2F8040514
:1024E800834506D0301A023820F07F40B0F5000F3F
:1024F8001BD8A6EB080626F07F46361945F10003DF
:1025080034461D4614490C983B0101EB0712C8508C
:102518000D9B5360C2E90245002438460099FFF735
:102528002DFF204603B0BDE8F08F3046AFE701230A
:102538000B4ABFF35B8FBB4052E8000F184342E8D9
:1025480000010029F8D1BFF35B8FDBE76FF01504BA
:10255800E3E700BF01000001E8000020001001408F
:10256800A003002073B5194B194D00244FF0FF301C
:102578004FF0FF31C5F80845C3E902014FF4803335
:10258800C5F80433134B02264FF400320121C5F875
:1025980004631120C3F880212246FEF783FD112031
:1025A800FEF764FD0C4A0123AB602B6013600B4BF4
:1025B8000B4A0093019400232046FFF72FFF304673
:1025C800FFF7EAF9204602B070BD00BFE80000201E
:1025D8000010014000E100E0A403002005230000F2
:1025E800FFFF7F002DE9F743334CD4F804339A07F3
:1025F8000BD5D4F8043143B1304A0023C4F8043170
:10260800D4F804311368013313604FF02003EFF35B
:10261800118283F31288BFF36F8FD4F80433DB037E
:1026280029D5BFF35B8F264B53E8001F21F001002B
:1026380043E80005002DF7D1BFF35B8F11B9D4F83B
:102648004031C3B10025C4F84051D4F8403182F379
:102658001188BFF36F8FFFF7BFFE4FF02003EFF332
:10266800118283F31288BFF36F8F164BD3E9026789
:10267800B042B94106D282F31188BFF36F8F03B01D
:10268800BDE8F0834FF0FF384FF0FF39D3E9001071
:10269800C3E902891D604FF48033C4F8483382F3DC
:1026A8001188BFF36F8F0029E9D0009032463B466E
:1026B80028468847E3E700BF00100140A803002030
:1026C800A0030020E8000020431C13B521D00128F6
:1026D80021DDB0F5000F20DA441EFFF77DFE104B18
:1026E800D3E90013421AB2F5000F0E4828BF0024A0
:1026F80001322244824228BF024652184FF000009D
:1027080009490190009143F10003FFF787FE02B0E9
:1027180010BD0448E0E70024DFE7024CDDE700BF16
:10272800F8000020FFFF7F000523000008B5FFF731
:1027380053FE024B1B68C01A08BD00BFF8000020FA
:10274800BFF34F8F0549064BCA6802F4E062134392
:10275800CB60BFF34F8F00BFFDE700BF00ED00E087
:102768000400FA054FF0704393F8E02F062A09D1C8
:10277800D3F8E83FC3F30313033B042B02D8024A00
:10278800D05C704700207047C85500004FF0805358
:10279800D3E94C23062A05D1033B042B0AD8064A61
:1027A800D05C70470A2A03D1022B03D8034AF7E703
:1027B8000020704701207047B9550000B655000049
:1027C800024AD2F80034002BFBD0704700E00140E9
:1027D80010B54FF08053D3F830315A1C04BF4FF076
:1027E800704393F8E03F062B08D14FF08053AD4A71
:1027F800D3F82433C3F30423C2F84035FFF7B2FFFC
:1028080010B1A94BA94A5A6702F0F3FA48B14FF040
:1028180080534FF08042D3F84432C3F34233C2F8B6
:102828003C35FFF79FFF30B1A14AD2F8FC3023F0C6
:102838008073C2F8FC3002F0DCFA40B14FF08043FC
:102848000022C3F80C21C3F81021C3F83825FFF77C
:1028580089FF20B14FF080430322C3F8A025FFF77A
:1028680081FF60B1934B0522C3F810260122C3F8FB
:1028780088260022C3F818263F22C3F814264FF0F2
:102888008053D3F83021541C09BF4FF07043D3F85C
:10289800343193F8E02FD3F8E83F08BFC3F30313AC
:1028A800062A4ED1033B042B03D8834AD35C002B62
:1028B80049D04FF08052814BD2F80414C3F8201548
:1028C800D2F80814C3F82415D2F80C14C3F8281544
:1028D800D2F81014C3F82C15D2F81414C3F8301514
:1028E800D2F81814C3F83415D2F81C14C3F84015DC
:1028F800D2F82014C3F84415D2F82414C3F84815A4
:10290800D2F82814C3F84C15D2F82C14C3F8501573
:10291800D2F83014C3F85415D2F83414C3F860153B
:10292800D2F83814C3F86415D2F83C14C3F8681503
:10293800D2F84014C3F86C15D2F84424C3F87025B3
:1029480001E00A2AB5D04FF08053D3F83031581C33
:1029580004BF4FF0704393F8E03F062B09D14FF0C6
:1029680080534FF08042D3F8583203F04F03C2F837
:10297800E43E02F03EFA48B14FF08043D3F8002419
:10298800D10744BF6FF00102C3F800244FF0805311
:10299800D3F83021062A0ED1D3F83431033B042B67
:1029A80002D8474AD35CD3B1464AD2F83C3743F4FD
:1029B8008063C2F83C374FF08053D3F830210A2A9D
:1029C8000DD1D3F83431022B09D8DA0741BF4FF0C3
:1029D8008042D2F8E43E43F00F03C2F8E43EFFF72A
:1029E800D5FE38B34FF010214FF08043D1F80822BC
:1029F800C3F85825FFF7CAFEE0B1D1F8003101331A
:102A080003D0D1F80431013314D12F4801234FF0FA
:102A18001024C0F804350021FFF7D2FEC4F80011D5
:102A2800FFF7CEFEC4F80411FFF7CAFEC0F804157C
:102A3800FFF7C6FE4FF01021D1F80032002B03DB60
:102A4800D1F80432002B17DA1F4901234FF0102068
:102A5800C1F804351524FFF7B3FEC0F80042FFF7AC
:102A6800AFFEC0F80442FFF7ABFE0023C1F80435FF
:102A7800FFF7A6FEFFF764FED1F80C32DB070DD591
:102A880011480123C0F804350024FFF799FEC1F866
:102A98000C42FFF795FEC0F80445E9E70B4B0C4ADA
:102AA8001A6010BD0030014000C007400DF0ADBAFB
:102AB80000ED00E000500040C355000000C0004099
:102AC800BE5500000010004000E001403800002022
:102AD8000090D00370B501250268BFF35B8FB2FA8E
:102AE80082F3C3F11F03DBB205FA03F422EA0404FC
:102AF80050E8006F964204D140E8004CBCF1000F4A
:102B0800F6D1BFF35B8FE7D101480B7070BD00BFF2
:102B18000000AD0B10B50368CB40DB0714D40123CC
:102B28008B400268BFF35B8F43EA020150E8004F15
:102B3800944204D140E8001CBCF1000FF6D1BFF369
:102B48005B8FEED1014810BD0148FCE70000AD0BDA
:102B58000400AD0BF7B5044618B1012822D003B024
:102B6800F0BD4FF080430222C3F80823C3F80401E4
:102B7800D3F804210122DA60074601238DF80730D3
:102B880042F210754FF08046CCB1012CE7D1C7B3A3
:102B9800D6F80C3403F001033B70D6F80C34DA0392
:102BA80021D516E04FF080430022C3F80803C3F88C
:102BB8000021D3F8002158600DF10707DDE7B7B110
:102BC800D6F8183403F003033B60D6F81834D8035A
:102BD800C5D59DF80700012803D102F01EF9013D73
:102BE800D2D1012CBBD10C4B00225A71B7E7D6F8D1
:102BF8001834D903B3D5012002F00FF9013DF6D1FD
:102C0800ADE7D6F80C34DB03EDD5012002F005F969
:102C1800013DF6D1E7E700BFAC030020054B1A7968
:102C28002AB99A71012218609A80034870470348AC
:102C3800704700BFAC0300200000AD0B0C00AD0BCB
:102C48004FF08043D3F80C24D3F80C14C80319D5DB
:102C5800D10717D5D3F81824D20313D50B498A798D
:102C680002F0FF0082B9C3F80C01D3F80C21084820
:102C78000822C3F8042301228A710221C3F8341CF4
:102C88001A6170470348704703487047AC03002037
:102C98000000AD0B0500AD0B0B00AD0B10B54FF0F0
:102CA8008043D3F800216AB10022C3F80021D3F889
:102CB80000210122C3F80823184B587910B95A711A
:102CC8001B6898474FF08043D3F804215AB100227B
:102CD800C3F80421D3F804210222C3F808230F4BB8
:102CE80001201B6898474FF08043D3F80C21A2B10C
:102CF800D3F80423120710D50022C3F8342CC3F8E4
:102D08000C21D3F80C110821C3F80813034B9A714E
:102D1800BDE810401B680320184710BDAC03002015
:102D2800034B083033F81000C0F34010704700BF61
:102D38003C00002070B500F108030C4C34F8133047
:102D4800DA0505460E4607D5C3F3432304EBC30251
:102D580054F8333052689847A3682BB1E26831467B
:102D68002846BDE87040184770BD00BF3C000020F1
:102D780010B4124A083032F81030D9051BD5C3F305
:102D8800432123F4F85322F8103002F10E040020F6
:102D980034F8023F13F4807F03D0C3F343239942EE
:102DA80009D001302028F3D1002342F831300448FB
:102DB80010BCFFF7AFBE10BC704700BF3C0000203E
:102DC8009000002038B50246FFF7AAFF094C02F12F
:102DD800080540B134F8153007495B0B03F5A273B9
:102DE800002041F823001046FFF7C2FF002324F813
:102DF800153038BD3C000020006000402DE9F3414B
:102E080004461D4609B34F4F00F1080837F818600B
:102E1800B30706D5FFF784FF18B14B4802B0BDE8E9
:102E2800F08104F01F039B0003F1A0430978D3F855
:102E3800000726F0020620F00F0046F0010640EADF
:102E4800810127F81860C3F800179AB13D4B17782D
:102E5800506804F1080633F8161011F0020F0DD06F
:102E68000028DAD133F8162022F01C0242EA870241
:102E780023F81620002D3BD13448CFE721F020015C
:102E8800C904C90C23F816100028EBD0032FC4D8A6
:102E9800526892F800C02FB92D4A0CF5A27C42F86E
:102EA8002C70DFE74FEA8C0202F1804202F5C04243
:102EB80041EA4C31D2F8100520F00300C2F81005A1
:102EC800D2F8100520F4473020F44070C2F81005FD
:102ED8002002D2F810E500F4F85040EA074040EA32
:102EE8000E0041F0200123F81610C2F81005B9E7CA
:102EF800D5E900672046FFF73BFF002EBCD0114DF7
:102F0800D5E90023964201D19F4219D011480DF10D
:102F18000701FFF7DFFD0D4B98427FF47FAF9DF867
:102F2800072045F8326005EBC20308345F6035F8C6
:102F3800143043EA422343F4807325F814309BE7A6
:102F48000022EEE73C0000200400AD0B0000AD0BB2
:102F58000060004090000020F8B5044689B33A4E5E
:102F680000F1080736F81750AB0704D4FFF7D8FE6E
:102F780008B13648F8BD15F01C0F4B7824D104F081
:102F88001F0000F5E07E4FF0A04C5B005CF82EC0FF
:102F980091F802E009782CF4E16C43EA8E032CF0F6
:102FA800070C43EA0C0343EA012300F5E0704FF0F5
:102FB800A04143F0010345F0030541F8203026F80D
:102FC800175022B92248D5E7012BD8D1D1E71E4E98
:102FD80004F1080736F817008307CAD592F800C02D
:102FE8006146890020F0200001F18041C00401F50C
:102FF800C041C00C26F817000023C1F810355578D9
:10300800002DDFD0D1F81035927823F4981323F4EB
:10301800F853C1F81035D1F810E5230203F4F8533A
:103028002D0443EA0E0305F4403512052B4302F440
:10303800801240EA4C30134340F0200026F8170075
:10304800C1F81035BEE700BF3C0000200400AD0BFE
:103058000000AD0B014BC3E9020170473C000020A2
:1030680008B50246FFF75CFE38B1054B0548083243
:1030780033F812305B0B0B7008BD0348FCE700BF48
:103088003C0000200000AD0B0400AD0B38B50F4C20
:1030980094F85850BDB94022294604F1100001F0B7
:1030A80095FC0620FDF7E2FF094B0A48C3F87C515E
:1030B800D3F87C214FF00042C3F80423012384F89D
:1030C8005830636538BD0448FCE700BF3C00002069
:1030D800006000400000AD0B0500AD0B034B93F8FA
:1030E8005800003818BF0120704700BF3C0000207E
:1030F80001460148FFF70EBD8C000020014601483B
:10310800FFF7E8BC8C00002010B50246FFF708FE68
:1031180002F108041C4B33F81430E0B113F0020438
:1031280019D15B0B9A0002F1804000F5C24002F110
:10313800804202F5C04204600068D2F8100540F0F1
:103148000100C2F8100529B1012202FA03F30F4A5F
:10315800C2F8043310BDC3F38203042B10D0052B2F
:1031680010D04FF0A043D3F8101502F01F03D94038
:1031780001F001010231BDE81040104601F096BE91
:103188000321F8E70221F6E73C0000200060004038
:1031980008B50246FFF7C4FDC0B102F108010E4BA5
:1031A80033F81130990711D45B0B01229A409B0028
:1031B8000A4903F1804303F5C043C1F80823D3F853
:1031C800102522F00302C3F8102508BDBDE8084009
:1031D8000021104601F06ABE3C000020006000405B
:1031E80010B50D4B00F10802044633F81230DB0726
:1031F8000FD5FFF7CDFF204604F01F04FFF7E2FDCF
:1032080004F5E0744FF0A043022243F82420034859
:1032180010BD0348FCE700BF3C0000200000AD0BD8
:103228000400AD0B2DE9F74F4F4B5048504900258E
:1032380001222C461E6836B1D0F8046316421EBF20
:103248001C601E68154304338B424FEA4202F1D1D9
:10325800464BD3F87C31BBB14FF0A046D6F82035A9
:103268000193C6F8203501AF4FF00108019C8CB9D5
:103278003E4BC3F87C41D3F87C31D6F82035019316
:10328800C6F82035002BEED10124002D53D103B010
:10329800BDE8F08F94FAA4F4B4FA84F4354A04F142
:1032A8000803E00832F813103B5C04F0070208FA40
:1032B80002F223EA02033B54A30003F1A049C1F33D
:1032C800820AD9F80027CB06D346C2F3014218D5A3
:1032D800594620465FFA82FAFFF72CFDD9F80037E5
:1032E800C3F301439A4507D10021204601F0DEFDD2
:1032F8005146204601F0DAFD08FA04F4C6F82045E4
:10330800B4E7022A0CD10321204601F0CFFD0AF0D0
:103318000503012BF0D159462046FFF70BFDEBE7DB
:103328000221204601F0C2FDBAF1030FF3D0032AAF
:10333800E2D18A45EEE795FAA5F3B3FA83F304FAE6
:1033480003F29B0003F1804303F5C04325EA02051D
:10335800D3F81005D3F81015C0F30420C1F30141C8
:10336800FFF7E8FC91E700BF006100400060004003
:10337800206100403C00002001460148FFF7AABB3D
:10338800980000200F4B70B553F82040013053F8D7
:103398002060A64200D870BDD4E900352846984779
:1033A8006DB138B10028B8BF4042EB68FF28A8BF0C
:1033B800FF201870EA68537843F00103537008340B
:1033C800E7E700BF5055000008B50A4B012203206B
:1033D8001A70FFF7D7FF01F033F90420FFF7D2FF87
:1033E80000F01AF9FCF7E2FF034A137B23F001030C
:1033F800137308BDFA0300208801002008B50348AC
:10340800034A0021121A01F086FD08BDE8000020D9
:10341800FC03002070B5002386B00122CDE9042307
:10342800134E144D01930F22CDE90232124918238D
:1034380003FB005506EBC01604464FF4A07000FBD2
:1034480004110E4B00954FF48072304600F086F858
:10345800737B0B4AEE6023F0040373734FF4046329
:1034680004FB033313442C756B6006B070BD00BFBA
:1034780008010020B4030020400C0020D9360000C9
:103488000004002080B50020A6B0FFF77BFF2C4B7E
:1034980083F308882B4D2C4E6B692C4F43F4007333
:1034A8006B610024E02385F82230EC772C766C766B
:1034B800AC766B6A43F4E0236B6285F82340FDF732
:1034C800D3FFFDF7B5FD4FF0FF33AB62EB62FEF7BC
:1034D80005F9FEF76BF840F20113ADF8243006AB9E
:1034E800B360CDE91F44229401F0EEFC0120FFF700
:1034F80049FF0220164DFFF745FF00F071FD154BFF
:10350800F5610593012314490094CDE903434FF471
:1035180080623B46CDE90144284600F01FF86A7BEB
:10352800064622F0040228466A7301F0B8FD2046D8
:10353800FFF770FF3A4631462846FDF76BFE00BF9D
:10354800400C002000ED00E0B4030020D13300005F
:1035580088010020CD550000800D00202DE9FF4195
:103568000E9E0673042646730D9E867300F1580559
:103578000F46D61DC0E916550C9A002526F00706F9
:103588004037C0E90655C0E919768560C573C56638
:1035980006F1400802920B9A019288440A9A009216
:1035A80042460446FDF704FE044B65659B6803B17B
:1035B8001B6F2367404604B0BDE8F081B4030020C8
:1035C800F0B587B000250595109D04950F9D0395CE
:1035D8000E9D0295DDE912760D9D01950C9D0095D5
:1035E8000446FFF7BBFFB6F1FF3F08BFB7F1FF3F47
:1035F80005D056EA070305D1204600F071FC2046A5
:1036080007B0F0BD03493A46334604F1180000F00C
:103618006FFEF4E7135000002DE9F043294C2A4DC2
:1036280087B02646AE4204F130040FD300F0A8FC60
:10363800244CDFF898904FF4004640F2E737AC424C
:1036480020D307B0BDE8F04300F0AEBC54F8043C0A
:10365800059354F8103C049354F8143C039354F81D
:10366800183C029354F81C3C019354F8203C0093F6
:1036780054E90A2354E90C01FFF770FF54F8303C71
:103688005E65CEE7636A5A1C0DD023EAE373002116
:103698003846C3FB060151EAC333D4F8008004D18D
:1036A800404600F01DFC3034C9E74FF47A7200231D
:1036B800FCF7FEFC02460B4608F11800494600F0EC
:1036C80017FEF0E72C5400002C54000013500000A3
:1036D80008B50B4C0B4D4FF02002EFF3118382F32A
:1036E8001288BFF36F8F01F07CFD2B78A06113B9AE
:1036F800FDF7A4FCEFE7FDF7CDFB0028EBD1F7E7DA
:10370800B4030020FA0300202DE9F34104461746CC
:103718001E464FF02003EFF3118883F31288BFF39E
:103728006F8FC368334A7BB180689168884219D02B
:1037380057EA060318D188F31188BFF36F8F6FF02B
:103748000F0002B0BDE8F081916891F90E10216177
:103758000133E3609368A36088F31188BFF36F8F28
:103768000020EEE72169F2E791F90E1090F90E308A
:103778009942A8BF19466FF07E029142B8BF114620
:103788008B422EDD01F0DDFB0546CDE900761A48B7
:103798002246414600F02EFB0028E1D04FF02003DE
:1037A800EFF3118683F31288BFF36F8FA068D0B14F
:1037B800236821699C420AD04BB193F90E30994293
:1037C800A8BF19466FF07E039942B8BF194601F0A9
:1037D800B8FB40B10848314600F070FB6FF00A00B2
:1037E800AFE70025D1E7002DF4D186F31188BFF3A8
:1037F8006F8FF3E7B4030020FB03002038B583681C
:1038080004466BB3194A926893422CD1C368012BC2
:1038180003D9013BC360002038BD4FF02003EFF30C
:10382800118583F31288BFF36F8F0169806801F0F7
:1038380088FB204601F06AFCA06058B190F90E2080
:1038480022610022826701F02AFC0948294600F01B
:1038580035FBE0E7E06085F31188BFF36F8FDAE7A7
:103868006FF01500D8E74FF0FF30D5E7B40300201C
:10387800FB03002038B504464FF02003EFF3118511
:1038880083F31288BFF36F8F01F040FC48B1002228
:10389800826701F004FC29460548BDE8384000F07D
:1038A8000DBBD4E902329A4218BF0133A360F2E794
:1038B800FB03002013B54FF02004EFF3118184F3CC
:1038C8001288BFF36F8F846844B1013C846081F330
:1038D8001188BFF36F8F002002B010BD52EA0304B5
:1038E80006D181F31188BFF36F8F6FF00F00F3E7F4
:1038F800CDE900230246024800F07CFAECE700BF5D
:10390800FB0300202DE9F04F4A4E85B004464FF0E6
:10391800FF384FF0FF394FF02003EFF3118783F39F
:103928001288BFF36F8FD4F880508DB9022104F14B
:10393800980001F021FB002843D10023CDE900893C
:10394800029304F1880239463B4800F057FCE2E74D
:10395800D4F884202B68C4F88030954208BFC4F896
:103968008430D4F8983043F00203C4F89830EB68F8
:1039780023F0040343F00103EB606B6887F31188BD
:10398800BFF36F8F284698474FF02003EFF3118B52
:1039980083F31288BFF36F8FEB68990723F0010256
:1039A80019D4EA60D4F8983023F00203C4F89830A8
:1039B8008BF31188BFF36F8FDB05ACD400F01CFBD1
:1039C800A9E704F1900500220121284601F0D0FB67
:1039D8000028F8D1B1E7306823F00303EB60002832
:1039E800E0D00027D0F800A03B460028DAD0426893
:1039F800954201460CD101689FB9726831608242D4
:103A080000D1716040F8083BFFF734FF39460023C6
:103A1800BAF1000F0BD0DAF8002050460F46924654
:103A2800E3E739607268824208BF7760EAE7524686
:103A3800F3E700BFDC030020FB030020F8B5C368F0
:103A48009A0704460F46C3F340062CD45B071AD4E2
:103A58000B680BB983680B60E368DD0744BFA36894
:103A68003B603D684CBF02260126002D3AD01F4B13
:103A78009B68AB420AD0D5F89830D807C3F38002C8
:103A880014D46FF0120600233B6025E001F047FADA
:103A9800D5F898300028F0D1D907C3F3C002F0D583
:103AA80052B15B0708D46FF00F06ECE7002AFAD191
:103AB800C3F3C003002BF6D100232360D5F884306C
:103AC80063B9C5E92044284601F061FAE36843F088
:103AD8000403E3603B68A3603046F8BD1C60C5F88A
:103AE8008440F0E76FF01506CDE700BFB40300206F
:103AF8000146014801F066BA10020020F0B589B00D
:103B080004460020C4E920000E9D04F18800C4E9A1
:103B1800220004F19000C4E924001DB3287900288C
:103B280040F2011008BF0120C4F8980000204FF0AF
:103B3800FF364FF0FF37CDE90330CDE90100CDE97D
:103B48000667094B00942046FFF73AFD25B129681E
:103B580011B1204601F0E9F9204609B0BDE8F0406E
:103B680001F0E6B90120DFE70D39000038B5074D4F
:103B78002C6854B1FEF7DAFD054B04441C61286833
:103B88000021BDE8384001F03CBB38BDEC03002003
:103B9800B403002038B50D4D2B4653F8204F9C42F6
:103BA80000D004B9EC68AB6838B95A7BD20604D1A6
:103BB800A26912B9DA897F2A05D89C4202D0204628
:103BC800FFF7D4FF2346EB6138BD00BFB4030020E4
:103BD80070B590F90D20437B002A014604DA03F002
:103BE8007F03437301F0FFF94B7B154A63F07F03B2
:103BF80010464B7350F8203F546A834208BF002395
:103C080023B9C1E90004216051620CE091F90E501A
:103C180093F90E60B5420ED0AE420CDD5868C1E98A
:103C28000030016059609068431A5842BDE87040FE
:103C38005841FFF7AFBF9C42E3D01B68E0E700BFE5
:103C4800B403002070B490F90D30427B002B29DBBF
:103C5800D30627D183692BBB134962F07F024273D5
:103C68000A4652F8204F944218BF23464C6A23B99B
:103C7800C0E90024206048620CE090F90E5093F9E6
:103C88000E60B5420AD0AE4208DD5A68C0E900327B
:103C98001060586070BC0020FFF77CBFA342E7D0DB
:103CA8001B68E4E770BC7047B403002008B590F9BE
:103CB8000D20437B002A014604DA03F07F03437397
:103CC80001F091F9044B9868431A58425841BDE8ED
:103CD8000840FFF75FBF00BFB403002070B515466A
:103CE8001C46064601F0B3F9B4F1FF3F08BFB5F131
:103CF800FF3F08D02A46234606F118000249BDE8CE
:103D0800704000F0F5BA70BD13500000F8B50446D5
:103D18000D464FF02003EFF3118783F31288BFF3AA
:103D28006F8F00264FF4004C40F2E73031464FF4D5
:103D38007A720023E4FB0C01FCF7BAF9B44202DD05
:103D48000228B8BF0220074A074B1060074A986844
:103D58001E611560FFF70AFF87F31188BFF36F8FA5
:103D6800F8BD00BFEC030020B4030020E8030020E6
:103D780038B54FF02003EFF3118583F31288BFF3B2
:103D88006F8F174B174A9C6811688C4207D12046E1
:103D9800FFF7ECFE85F31188BFF36F8F38BD002164
:103DA8001160114A1268C2B1E2897F2A15D8627B74
:103DB800D20612D10D4A94F90E10126891420CDB0A
:103DC8000B4A944209D01A69824203DC2046FFF765
:103DD800FFFEDCE7121A1A61DCE70022FBE700BFEE
:103DE800B4030020E4030020EC030020E8030020D3
:103DF8000801002070B50C480C4D86682E600C46F2
:103E08001146DDE904234FF02006EFF3118586F310
:103E18001288BFF36F8F8068FFF760FF2046BDE808
:103E28007040FDF771B900BFB4030020E40300201F
:103E3800F8B504464FF02003EFF3118683F3128898
:103E4800BFF36F8F437BDA0649B219D18569BDB9D3
:103E580003F07F03437301F0C6F8437B164A81736E
:103E680063F07F034373134653F8200F984218BF3B
:103E78000546506A5DB9C4E900300460546211E037
:103E8800A173002086F31188BFF36F8FF8BD95F9F1
:103E98000E70B9420BD08F4209DD6B68C4E900533C
:103EA8001C606C600120FFF775FE0120EAE7A8425C
:103EB800E1D02D68DEE700BFB403002049B9EFF375
:103EC800058030B9054BDA699B689A4201D0FDF745
:103ED8001BB981F31188BFF36F8F7047B4030020BB
:103EE80010B54FF02002EFF3118482F31288BFF36C
:103EF8006F8F427B510704D484F31188BFF36F8F0F
:103F080010BD22F004024273FFF79CFE21460248CE
:103F1800BDE81040FFF7D2BFFB03002070B5044690
:103F2800183001F048F94FF02003EFF3118683F3BE
:103F38001288BFF36F8F94F90D20637B002A05DA8E
:103F480003F07F036373204601F04DF80B4D637B4C
:103F5800A86843F010036373031B58425841FFF7E6
:103F680019FE86F31188BFF36F8FAB68A34203D1A4
:103F7800BDE8704001F0F2B870BD00BFB403002086
:103F88004FF02003EFF3118183F31288BFF36F8F93
:103F9800044B9A68D37B013BD37381F31188BFF339
:103FA8006F8F7047B403002010B54FF02003EFF374
:103FB800118483F31288BFF36F8F084B9A68D37B01
:103FC8000133D3730020FFF7E5FD84F31188BFF3B5
:103FD8006F8FBDE8104001F0C1B800BFB4030020E6
:103FE800044B002103F12002C3E908220846FFF729
:103FF8008DBE00BFB4030020F8B54FF02003EFF3E7
:10400800118583F31288BFF36F8F19498868437B42
:1040180003F07F03437300F0E6FF8B685A7B084682
:1040280062F07F025A7350F8202F4C6A824208BF10
:10403800002222B9C3E9000423604B620CE093F923
:104048000E6092F90E70BE420ED0B7420CDD516878
:10405800C3E900210B6053600120FFF79BFD284650
:10406800BDE8F840FDF750B8A242E3D01268E0E797
:10407800B403002050EA01032DE9F04105460E463D
:1040880003D1FFF7B9FF00202CE0831C71F1FF3347
:104098002ADB01F0D2F844194FF02003EFF311881E
:1040A80083F31288BFF36F8F114F124BB8681860F3
:1040B800FFF7FCFDB86810492A463346183000F06F
:1040C80017F9BA68537B43F0100353734046FDF762
:1040D8001BF801F0B2F8201A63EB0303012873F10F
:1040E8000003D0DBBDE8F0816FF00104241AD3E7A8
:1040F800B4030020E403002013500000B1F1FF3F97
:1041080008BFB0F1FF3F08B506D1084B9868FFF724
:1041180005FF4FF0FF3008BDFFF7ACFF4FF47A738F
:1041280080FB0303C00B40EA4340F4E7B4030020DC
:10413800014B9868704700BFB40300202DE9F04197
:1041480004464FF02003EFF3118683F31288BFF380
:104158006F8F037BD9070BD586F31188BFF36F8F59
:10416800404080F311884FF0040002DFBDE8F08181
:10417800437B1A0704D586F31188BFF36F8FF5E7E1
:1041880023F0200242F00801D20920D14173A3682C
:1041980013B1204600F02FFF04F1180001F00BF8CE
:1041A80004F158074FF00008A56DBD4200D0B5B91D
:1041B8000120FFF7EFFC104B9B68A342DBD1EFF324
:1041C8000583002BD7D13046FCF79EFFD3E703F0D9
:1041D8005F0343F00803437300F005FFD7E7284661
:1041E80000F009FF05F1180000F0E5FFC5F8788038
:1041F8002846FFF727FDD7E7B4030020D3B5DDE94C
:104208000667089CCDE90067FFF7F4FD1CB1034B76
:104218009B685B69236002B0D0BD00BFB403002077
:1042280008B50648064A0749121A00F076FEBDE8A6
:104238000840054A0549064800F06FBE0000002006
:10424800E80000200C560000000000000C5600009A
:1042580000000020034B1B680BB9FEF767BA00206B
:10426800704700BFF003002010B5114B1C689C423A
:104278000AD1FFF7EFFF6FF000400E4B1B6913B137
:104288009842A8BF184610BDFFF7E4FF002CF2D0F3
:10429800D4E904321B1A62EBE072B3F1004F72F1F9
:1042A8000001E8DA002AACBF18460020E5E700BFA5
:1042B8009C000020B403002030B570B10B4B5B6844
:1042C80098420AD0036843B1D3E90421D0E90445F0
:1042D800121941EB0501C3E90421D0E9003213604A
:1042E8005A600023C0E9003330BD00BF9C000020A5
:1042F800B3F1FF3F08BFB2F1FF3FF8B504461D46D2
:10430800164661D081604FF02003EFF3118783F3E5
:104318001288BFF36F8F013275F1FF3324DA304909
:10432800D1E900206FF001039B1A4FF0FF3262EBD6
:1043380000009E1B60EB0500012E70F1000301DAFE
:1043480001260020C4E90460264ED6F800C075682E
:10435800B44508BF4FF0000CBCF1000F0DD1C4E903
:1043680000652C6074601CE0FFF774FF013645F1AE
:104378000005361845EBE070E4E7DCE90420D4E9F1
:104388000431934271EB000E1FDAD21ADCF80430C4
:1043980060EB0100CCE90420C4E900C31C60CCF840
:1043A80004403368B3420BD09C4209D1FFF75CFF4D
:1043B80018B10D4B1B69834202D00021FEF784F926
:1043C80087F31188BFF36F8FF8BD9B1A61EB00016B
:1043D800AC45C4E90431C2D0DCF800C0BCE700BF7A
:1043E800080200209C000020B40300202DE9F843B7
:1043F8000446FFF7BDFC4FF02003EFF3118683F36B
:104408001288BFF36F8F234FDFF88C80D8F8000035
:10441800224A3C604045D2E9003E4FEAE4710BD0A5
:1044280050B1D0E9045CAC4271EB0C0916DA2D1BD3
:104438006CEB010CC0E9045CE3184EEB01010024AD
:10444800C2E900313C60FFF70FFF2146FEF73CF957
:1044580086F31188BFF36F8FBDE8F883EB184EEB36
:10446800E571C2E9003100220023C0E90423FFF707
:1044780023FF86F31188BFF36F8F836898474FF047
:104488002003EFF3118683F31288BFF36F8F3C6824
:10449800641BBBE7F00300209C00002008020020FA
:1044A80010B54FF02003EFF3118483F31288BFF3A4
:1044B8006F8FFFF7CFFE064A0346D2E900011818AE
:1044C80041EBE37184F31188BFF36F8F10BD00BF18
:1044D8000802002070B504464FF02003EFF3118561
:1044E80083F31288BFF36F8FD0E90A32013342F1A8
:1044F8000002022B72F1000222D300F0A2FED4E9DE
:104508000A32013041F10001C01841EB02010128D3
:1045180071F1000132DB00F094FE013041F100033B
:10452800D4E90A2180186FF0010243EB0103121A43
:104538004FF0FF3161EB03031A492046FFF7D8FE1D
:10454800236B01332363236A73B185F31188BFF3A7
:104558006F8F236A204698474FF02003EFF31185A9
:1045680083F31288BFF36F8F54F8186FA64200D0F8
:104578004EB985F31188BFF36F8F70BD6FF00102DC
:104588004FF0FF33D8E7304600F099FD0023B367BA
:1045980085F31188BFF36F8F3046BDE8704000F097
:1045A8007EBD00BFDD4400002DE9F047B3F1FF3FB9
:1045B80008BFB2F1FF3F05461446DDE90860194619
:1045C8009146984637D0B0F1FF3F08BFB6F1FF3F9C
:1045D8003746824611D050EA06030ED0721C70F19D
:1045E800FF330ADB022E844670F10000BCBF0227AD
:1045F8004FF0000C013F4CF1FF3A631C71F1FF339F
:104608000ADB012C71F100032246BCBF0122002104
:1046180012F1FF3941F1FF38284600F0CCFDC5E919
:104628000A7A00232B634A46434628460349BDE8D5
:10463800F047FFF75DBEBDE8F08700BFDD4400002E
:10464800014800F024B800BFD25500001FB5094B3F
:10465800029302AB00240093074908488DF80C40E8
:104668004FF0FF334FF48062FFF748FA204604B05A
:1046780010BD00BF00560000C0110020100200202D
:104688004FF400400021FFF739BD002070470FB4F8
:1046980007B504A951F8040B0191FBF7C1FE03B05B
:1046A8005DF804EB04B07047044608B508461146A7
:1046B8001A46A047FFF73CFDFCF762FF038B13F097
:1046C800070305D10368002B0CBF002003207047A7
:1046D800022B05D1408BB0FA80F04009800070476A
:1046E800012B05D10368002B0CBF00200520704763
:1046F8000020704710B50C4600B111B96FF01500D5
:1047080010BD081D00F0BAF80028F9D1A368032BE2
:10471800F6D9F3E72DE9F0410D4607461946281D5D
:1047280090461E4600F0BBF8044638B13346424670
:1047380029463846A446BDE8F0416047BDE8F08107
:1047480010B44FF02004EFF3118284F31288BFF302
:104758006F8F416110BC0121FBF770BE38B50C4664
:10476800054658B151B10B6843B14B6833B11C22AF
:10477800002100F02BF92C61002038BD6FF01500E6
:10478800FBE770B505460E46FFF7B4FF041E15DBC0
:104798004FF02003EFF3118283F31288BFF36F8F7A
:1047A8006B8B2C8B4FF6FF718B4204F0070407D1FB
:1047B80082F31188BFF36F8F6FF00A04204670BD33
:1047C800022C0CD101336B8382F31188BFF36F8FF6
:1047D8000023224631462846FFF79CFFEEE7062CC9
:1047E80014D8DFE804F004131313041A0400002398
:1047F80033606B683BB9C5E90066ACB9022128464D
:10480800FBF71CFEDAE71E606E60F6E782F311889C
:10481800BFF36F8F6FF00404D0E782F31188BFF302
:104828006F8F6FF08504C9E782F31188BFF36F8F2C
:10483800C4E710B54FF02003EFF3118283F3128819
:10484800BFF36F8F048B04F00704022C0AD0012CED
:104858000CBF6FF004006FF0850082F31188BFF37E
:104868006F8F08E0438B013B9BB2438323B92146FA
:10487800FBF7E4FD204610BD2046EEE7034658B19D
:10488800426802F00302012A03D0032A04D1026815
:1048980012B10020986070476FF0150070474268A9
:1048A800816002F00302032A4FF0000203460CBFA6
:1048B800006810465A6070472DE9F84F9A46D37839
:1048C8006F2B80460F461546A3F1410B29D024D8FB
:1048D800582B0CBF10260A26DDF8289032460023F4
:1048E80040463946FBF7E4FB092AD4B21ED83034D7
:1048F800B045E4B277F1000709F8014D01D3D1457D
:1049080011D82B789B0605D5082E15D1AB7843F026
:104918000803AB704846BDE8F88F03F0F703702B27
:10492800D7E70826D8E780460F46D7E7BBF1190F27
:1049380094BF37345734DBE7102EEBD1AB7843F014
:104948001003E6E72DE9F0410746884615461E465E
:104958001446B44205D30EB1601B08E02378002B3F
:10496800FAD014F8010B4146B8470028F1DABDE83F
:10497800F081704700F0B4BA0146006800F0B0BAA0
:1049880000210120FFF7F6BF08B5FCF7A3FBBDE83F
:104998000840FCF775BC034600201A5C02B9704752
:1049A8000130FAE7034600201A5C0AB1884200D1B8
:1049B80070470130F8E710B5431E0A44914200D110
:1049C80010BD11F8014B03F8014FF7E7C9B20244D3
:1049D8000346934200D1704703F8011BF9E74FF0F3
:1049E800FF3070474FF02002EFF3118382F31288F3
:1049F800BFF36F8F4FF080420121C2F8781583F31F
:104A08001188BFF36F8F00207047062808D14FF038
:104A180080430122C3F80025BFF34F8F20BFFDE775
:104A28007047002383F31188BFF36F8F70470369C2
:104A3800C9B20C2201FB0233186C00F00700704762
:104A48004FF02003EFF3118283F31288BFF36F8FC7
:104A5800036803F0C00343F00203036082F3118884
:104A6800BFF36F8F704770B5C9B203694FF0200468
:104A7800EFF3118584F31288BFF36F8F0C2606FBC2
:104A88000134246C14F0C00408D0A24206D085F387
:104A98001188BFF36F8F4FF0FF3070BD06FB0133F5
:104AA80001221A6485F31188BFF36F8F436803EB03
:104AB800C1035B6898470020EFE78022FFF7D3BF68
:104AC800F8B5069F0469C9B24FF02005EFF31186C7
:104AD80085F31288BFF36F8F0C2505FB0144256C05
:104AE80005F0070CBCF1010F0CD1276486F311887F
:104AF800BFF36F8FC4E90E23436853F831309847EA
:104B08000020F8BD05F0C005AF4286F31188BFF359
:104B18006F8F0CBF6FF077004FF0FF30F1E713B5E0
:104B280080240094FFF7CCFF02B010BD10B40069D8
:104B3800CBB21C2403FB0400002110BC104700204A
:104B480000F07AB91046FEF795BE08B5FDF72EF8C5
:104B5800BDE80840002000F0A7B9FCF777BF43681C
:104B68005B68D3F810350B600020704743685B68BA
:104B780002EA010021EA0201C3F80805C3F80C158E
:104B88000020704743685B680020C3F80815704729
:104B980043685B680020C3F80C15704743685A687F
:104BA800D2F8043521EA03000B40C2F80805C2F820
:104BB8000C350020704710B503695868F8B1884271
:104BC80019D19C6808685860A14200D198600020FB
:104BD80008602AB15A680A609A68596002B99960EF
:104BE800002010E0814206D1086820609868814260
:104BF800EDD19C60EBE7044600680028F2D1002A5A
:104C0800E8D16FF0150010BD02690B46D2E9010129
:104C180083E803000020704743681B68D3F88004CA
:104C2800C3F880047047436802691B68D3F8100111
:104C380050B15269002012780A70C3F81001D3F8F5
:104C4800102101221A6070474FF0FF307047026848
:104C58000346D2F8580140B95B689B0706D4D2F8DE
:104C68002001003818BF01207047012070474268B2
:104C78001368D3F80413C90518D5D3F82011A9B1BE
:104C88004FF02000EFF3118180F31288BFF36F8F8C
:104C9800D3F8200130B10020C3F82001D3F8200157
:104CA8000120D86081F31188BFF36F8F5268D20654
:104CB80015D54FF02001EFF3118281F31288BFF36D
:104CC8006F8FD3F8581111B10021C3F800154FF4B4
:104CD8008001C3F8081382F31188BFF36F8F704700
:104CE800704770B543686FF060461360057A446892
:104CF800354404EBC504A34202D96FF0010070BD2E
:104D08005C798C4201D00833EFE70020F7E72DE902
:104D1800F04100EB81014FF0010C4FF0A0478142B8
:104D280002D10020BDE8F081056805F07F03C5F3D6
:104D380043247F2B4FEA154508BF4FF0FF330C2D56
:104D480050D8DFE805F0071116191C27194F4F4FE7
:104D58004F2B4C00C2F80C3503F01F050CFA05F573
:104D6800C7F80855012502E0C2F8143500252E467B
:104D78001BE0C2F80835EFE7C2F81035F6E7C2F8CD
:104D88000835002503F01F060CFA06F6C7F80C656F
:104D980001260AE0C2F80C350125F3E7C2F8083508
:104DA800002CE3D100252E46062450F804EB0EF41F
:104DB8000058B8F1000FCEF3C11E4FEA042418BF03
:104DC800002603F01F0344EA8E0418BF012534436C
:104DD80003F5E07344EA450447F823409FE7C2F827
:104DE8000C35DDE76FF085009CE708B50020FCF77F
:104DF800ABFC4FF08053D3F83001421C04BF4FF096
:104E0800704393F8E00F062804D0A0F10A03584233
:104E18005841704701207047004700F014BA08B5A0
:104E28000020FCF731F908B9FCF720F94FF080436E
:104E38000022C3F8182508BD08B510B1012828D0EC
:104E480008BD4FF08043D3F81824D3F81814C903C9
:104E58000BD4D3F81424D0070CD5D3F81C2492070C
:104E680005D10222C3F80423EAE7910702D0002003
:104E7800FDF770FE4FF080430022C3F81825C3F8F1
:104E88000421D3F804210222C3F8042301229A60E2
:104E9800D6E74FF080430022C3F80021D3F8002161
:104EA800C3F804031860CBE7FDF754BE00F01F00F9
:104EB800800000F1A040D0F8003723F4403343EAE3
:104EC8000143C0F800377047704740B1C36858784D
:104ED80010F001001EBF1878B0FA80F04009704742
:104EE800F8B505460E464FF02003EFF3118783F31C
:104EF8001288BFF36F8FFFF71BF931460446284627
:104F0800FFF773FF87F31188BFF36F8F2046BDE863
:104F1800F840FCF735BBFFF759BDFFF74CBDEFF381
:104F28000580003818BF012070476FF057007047A0
:104F3800FEF7D6BF08B5FBF771FFBDE80840FFF7DD
:104F4800CFBE90F90E308B4201D0FEF771BF002022
:104F5800704703460020C3E90200C3E900337047E5
:104F68003AB18A4205D3C0E90212C0E90000002024
:104F780070476FF015007047026801238B4022EAE2
:104F88000303036022FA01F000F00100704720B12A
:104F980000221146883000F0EBB8704713B5019035
:104FA80008464FF02003EFF3118483F31288BFF310
:104FB8006F8F01A9FEF742FD84F31188BFF36F8F4D
:104FC80002B010BD10B5FFF7E9FF041E09DD4FF070
:104FD8002003EFF3118083F31288BFF36F8F00F083
:104FE800B1F8204610BDD0E9003213605A600023A2
:104FF800C0E90033704708B5FFF7F5FF437B23F09E
:10500800020343730023836008BD10B501464FF0C7
:105018002003EFF3118483F31288BFF36F8F10F826
:105028000B3C13F0280F0DD151F8103C18380BB178
:10503800FFF7E1FF11F80B3C23F0140301F80B3CD8
:10504800FEF700FE84F31188BFF36F8F10BD38B5EB
:1050580004460D46FEF72AFE637B43F002036373A2
:10506800E5B1A5602B689D4209D16B68C4E900537E
:105078001C606C6012E06A689342F6D01B68002BD3
:10508800F3D094F90E2093F90E108A42F3D091428E
:10509800F1DD5A68C4E9003214605C6038BD10B5AF
:1050A8004FF02003EFF3118483F31288BFF36F8F5F
:1050B800FEF7C8FD84F31188BFF36F8F10BD08B5E4
:1050C8004FF02003EFF3118183F31288BFF36F8F42
:1050D800FFF791FF81F31188BFF36F8F08BD08B503
:1050E80003464FF02002EFF3118182F31288BFF3D9
:1050F8006F8F0068834207D008B1FFF77CFF81F308
:105108001188BFF36F8F08BD0020F8E738B54FF05E
:105118002003EFF3118583F31288BFF36F8F0468C0
:10512800A0420DD034B12046FFF765FF04F1180006
:1051380000F041F885F31188BFF36F8F204638BD22
:105148000024F7E7034620B9EFF305820AB9FBF715
:10515800DBBF83F31188BFF36F8F70474FF02003D5
:10516800EFF3118083F31288BFF36F8FFFF7EABF65
:1051780038B54FF02003EFF3118583F31288BFF39E
:105188006F8F0468A04212D09CB1A167626120466B
:10519800FFF731FF04F1180000F00DF82046FEF784
:1051A80051FD012085F31188BFF36F8F38BD0020B2
:1051B800F8E72046F6E710B54FF02002EFF3118428
:1051C80082F31288BFF36F8F03683BB1FFF774F85F
:1051D800002084F31188BFF36F8F10BD6FF01500A6
:1051E800F7E710B54FF02003EFF3118483F312882B
:1051F800BFF36F8FFFF738F884F31188BFF36F8F11
:1052080010BD70B504460D464FF02003EFF311862C
:1052180083F31288BFF36F8FFFF726F8012807DDA5
:10522800A04205DBA0422946A8BF2046FDF74CFA5C
:1052380086F31188BFF36F8F70BD08B5FFF730F99B
:1052480008BDFFF72DB908B1FCF794BA704710B53F
:105258000446FFF7B0FFB0B9636A0BB12046984720
:1052680004F11800FFF73BFF68B1FFF718FF4FF094
:105278002003EFF3118083F31288BFF36F8FBDE82B
:0C5288001040FFF75FBF10BD7047000032
:0852940058AEFF7F010000008D
:10529C00ED4900000000000005180000DC52000081
:1052AC00E91C0000F4520000F52000000C53000033
:1052BC00D11B0000000000006D2500000000000064
:1052CC0055460000000000004D1F00002453000054
:1052DC007D55000090540000A0540000A400002054
:1052EC00F40200203E5400008C550000BC54000019
:1052FC00CC540000A60000206803002038540000A5
:10530C00A85500000455000038550000AA000020E4
:10531C001C000020325400009A55000000000000D0
:10532C00F0540000A8000020740300202C5400004E
:10533C00A52C0000214E000000000000894900004F
:10534C000C530000774C000000000000894900005D
:10535C00000000008949000000000000894900009D
:10536C002D320000214E0000000000008949000091
:10537C00000000008949000000000000894900007D
:10538C00000000008949000000000000894900006D
:10539C0024530000BD1E00000000000089490000DD
:1053AC00000000008949000000000000894900004D
:1053BC00000000008949000000000000ED250000FD
:1053CC00000000008949000000000000894900002D
:1053DC00000000008949000000000000894900001D
:1053EC00000000008949000000000000894900000D
:1053FC0000000000894900000000000089490000FD
:10540C0000000000894900000000000089490000EC
:10541C0000000000894900000000000089490000DC
:10542C0000800080FF7F00800080FF7F0080008074
:08543C00FF7F00800080FF7F6C
:0C544400FFFFFFFFFFFFFFFFFFFFFFFF68
:105450000338FDD870470000000000200000000065
:1054600000000B06020000006C5400000000000069
:105470006E55000022000207000000207655000053
:105480001C000B11C1170000911700000000000064
:10549000CD18000065190000474B0000534B000079
:1054A00031190000C34A0000274B00000000000033
:1054B000374A00000000000000000000FFFFFFFF6F
:1054C0000000005000000000000000005D1D000012
:1054D000674B0000754B00008D4B0000994B00009E
:1054E000A54B0000211C0000BF4B00000000000085
:1054F000000000000000000000000000D51E0000B9
:10550000911E00000020004002000000000000008A
:10551000145500000020004020550000010000004C
:1055200028550000040000000600000008000100EB
:1055300005000200070003002F4C0000F1210000CD
:10554000214C00008D1F0000114C0000F5FFFFFFF3
:105550009C5200009C520000C4520000CC5200003B
:10556000DC520000DC520000286E696C2900464CB9
:105570004153485F30005352414D5F3000636C6FC0
:10558000636B403430303030303030006770696FDA
:105590004035303030303030300074656D7040341C
:1055A00030303063303030007561727440343030E8
:1055B00030323030300000000100000000010000F7
:1055C000000101000001010101000000006D61699E
:1055D0006E002A2A2A20426F6F74696E67205A650E
:1055E00070687972204F53206275696C642076333D
:1055F0002E322E39392D6E637331202A2A2A0A0061
:0C560000737973776F726B71000000000B
:10560C0093460000FFFFFFFFE74900000000000089
:10561C00D51A00000000000000000000000000008F
:10562C0000C201000001030000000000F90300208B
:10563C00F8030020000000000090D00300000000E0
:10564C00000000000000000000000000000000004E
:10565C00000000000000000000000000000000003E
:10566C00000000000000000000000000000000002E
:10567C00000000000000000000000000000000001E
:10568C00000000000000000000000000FF0000000F
:10569C000000000000000000FFFF0F009C00002035
:0456AC009C0000203E
:0856B0000000000000000000F2
:0456B800FFFFFFFFF2
:1056BC000000000000000000DD44000000000000BD
:1056CC000000000000000000C8000020C8000020FE
:1056DC00634B000000000000000000000000000010
:0856EC000000000000000000B6
:0456F40015E015E0C8
:04000003000014AD38
:00000001FF
